{
  "_format": "hh-sol-artifact-1",
  "contractName": "Vault",
  "sourceName": "contracts/Vault.sol",
  "abi": [
    {
      "inputs": [
        {
          "internalType": "address",
          "name": "_owner",
          "type": "address"
        }
      ],
      "stateMutability": "nonpayable",
      "type": "constructor"
    },
    {
      "anonymous": false,
      "inputs": [
        {
          "indexed": true,
          "internalType": "address",
          "name": "from",
          "type": "address"
        },
        {
          "indexed": false,
          "internalType": "uint256",
          "name": "amount",
          "type": "uint256"
        },
        {
          "indexed": false,
          "internalType": "uint256",
          "name": "balance",
          "type": "uint256"
        }
      ],
      "name": "Deposited",
      "type": "event"
    },
    {
      "anonymous": false,
      "inputs": [
        {
          "indexed": true,
          "internalType": "address",
          "name": "by",
          "type": "address"
        },
        {
          "indexed": false,
          "internalType": "uint256",
          "name": "timestamp",
          "type": "uint256"
        }
      ],
      "name": "Frozen",
      "type": "event"
    },
    {
      "anonymous": false,
      "inputs": [
        {
          "indexed": false,
          "internalType": "bytes32",
          "name": "txId",
          "type": "bytes32"
        },
        {
          "indexed": false,
          "internalType": "address",
          "name": "from",
          "type": "address"
        },
        {
          "indexed": false,
          "internalType": "address",
          "name": "to",
          "type": "address"
        },
        {
          "indexed": false,
          "internalType": "uint256",
          "name": "amount",
          "type": "uint256"
        },
        {
          "indexed": false,
          "internalType": "bool",
          "name": "flagged",
          "type": "bool"
        }
      ],
      "name": "TxRecorded",
      "type": "event"
    },
    {
      "anonymous": false,
      "inputs": [
        {
          "indexed": true,
          "internalType": "address",
          "name": "by",
          "type": "address"
        },
        {
          "indexed": false,
          "internalType": "uint256",
          "name": "timestamp",
          "type": "uint256"
        }
      ],
      "name": "Unfrozen",
      "type": "event"
    },
    {
      "anonymous": false,
      "inputs": [
        {
          "indexed": true,
          "internalType": "address",
          "name": "to",
          "type": "address"
        },
        {
          "indexed": false,
          "internalType": "uint256",
          "name": "amount",
          "type": "uint256"
        }
      ],
      "name": "Withdrawn",
      "type": "event"
    },
    {
      "inputs": [],
      "name": "deposit",
      "outputs": [],
      "stateMutability": "payable",
      "type": "function"
    },
    {
      "inputs": [],
      "name": "freeze",
      "outputs": [],
      "stateMutability": "nonpayable",
      "type": "function"
    },
    {
      "inputs": [],
      "name": "frozen",
      "outputs": [
        {
          "internalType": "bool",
          "name": "",
          "type": "bool"
        }
      ],
      "stateMutability": "view",
      "type": "function"
    },
    {
      "inputs": [],
      "name": "owner",
      "outputs": [
        {
          "internalType": "address",
          "name": "",
          "type": "address"
        }
      ],
      "stateMutability": "view",
      "type": "function"
    },
    {
      "inputs": [
        {
          "internalType": "bytes32",
          "name": "txId",
          "type": "bytes32"
        },
        {
          "internalType": "address",
          "name": "from",
          "type": "address"
        },
        {
          "internalType": "address",
          "name": "to",
          "type": "address"
        },
        {
          "internalType": "uint256",
          "name": "amount",
          "type": "uint256"
        },
        {
          "internalType": "bool",
          "name": "flagged",
          "type": "bool"
        }
      ],
      "name": "recordTx",
      "outputs": [],
      "stateMutability": "nonpayable",
      "type": "function"
    },
    {
      "inputs": [],
      "name": "unfreeze",
      "outputs": [],
      "stateMutability": "nonpayable",
      "type": "function"
    },
    {
      "inputs": [
        {
          "internalType": "address payable",
          "name": "to",
          "type": "address"
        },
        {
          "internalType": "uint256",
          "name": "amount",
          "type": "uint256"
        }
      ],
      "name": "withdraw",
      "outputs": [],
      "stateMutability": "nonpayable",
      "type": "function"
    },
    {
      "stateMutability": "payable",
      "type": "receive"
    }
  ],
  "bytecode": "0x608060405234801561001057600080fd5b50604051610c7d380380610c7d833981810160405281019061003291906100f5565b806000806101000a81548173ffffffffffffffffffffffffffffffffffffffff021916908373ffffffffffffffffffffffffffffffffffffffff16021790555060008060146101000a81548160ff02191690831515021790555050610122565b600080fd5b600073ffffffffffffffffffffffffffffffffffffffff82169050919050565b60006100c282610097565b9050919050565b6100d2816100b7565b81146100dd57600080fd5b50565b6000815190506100ef816100c9565b92915050565b60006020828403121561010b5761010a610092565b5b6000610119848285016100e0565b91505092915050565b610b4c806101316000396000f3fe6080604052600436106100745760003560e01c80638da5cb5b1161004e5780638da5cb5b14610129578063aa0f1c2b14610154578063d0e30db01461017d578063f3fef3a314610187576100cb565b8063054f7d9c146100d057806362a5af3b146100fb5780636a28f00014610112576100cb565b366100cb573373ffffffffffffffffffffffffffffffffffffffff167f73a19dd210f1a7f902193214c0ee91dd35ee5b4d920cba8d519eca65a7b488ca34476040516100c19291906106d1565b60405180910390a2005b600080fd5b3480156100dc57600080fd5b506100e56101b0565b6040516100f29190610715565b60405180910390f35b34801561010757600080fd5b506101106101c3565b005b34801561011e57600080fd5b506101276102bc565b005b34801561013557600080fd5b5061013e6103b4565b60405161014b9190610771565b60405180910390f35b34801561016057600080fd5b5061017b6004803603810190610176919061084b565b6103d8565b005b6101856104ac565b005b34801561019357600080fd5b506101ae60048036038101906101a99190610904565b6104fe565b005b600060149054906101000a900460ff1681565b60008054906101000a900473ffffffffffffffffffffffffffffffffffffffff1673ffffffffffffffffffffffffffffffffffffffff163373ffffffffffffffffffffffffffffffffffffffff1614610251576040517f08c379a0000000000000000000000000000000000000000000000000000000008152600401610248906109a1565b60405180910390fd5b6001600060146101000a81548160ff0219169083151502179055503373ffffffffffffffffffffffffffffffffffffffff167f68e0d8c112165d0949ce87205b719ed7d98c7401866c34a159f7c67c6f5620e7426040516102b291906109c1565b60405180910390a2565b60008054906101000a900473ffffffffffffffffffffffffffffffffffffffff1673ffffffffffffffffffffffffffffffffffffffff163373ffffffffffffffffffffffffffffffffffffffff161461034a576040517f08c379a0000000000000000000000000000000000000000000000000000000008152600401610341906109a1565b60405180910390fd5b60008060146101000a81548160ff0219169083151502179055503373ffffffffffffffffffffffffffffffffffffffff167f07d647ad688e085159820c1d8d030e5765cdc5274d4ee4065c6066b388a2ef59426040516103aa91906109c1565b60405180910390a2565b60008054906101000a900473ffffffffffffffffffffffffffffffffffffffff1681565b60008054906101000a900473ffffffffffffffffffffffffffffffffffffffff1673ffffffffffffffffffffffffffffffffffffffff163373ffffffffffffffffffffffffffffffffffffffff1614610466576040517f08c379a000000000000000000000000000000000000000000000000000000000815260040161045d906109a1565b60405180910390fd5b7f53bbd7d17676e9229236e7a3ddac3bb484bb304bf7fabeb67bacbc261af21411858585858560405161049d9594939291906109eb565b60405180910390a15050505050565b3373ffffffffffffffffffffffffffffffffffffffff167f73a19dd210f1a7f902193214c0ee91dd35ee5b4d920cba8d519eca65a7b488ca34476040516104f49291906106d1565b60405180910390a2565b60008054906101000a900473ffffffffffffffffffffffffffffffffffffffff1673ffffffffffffffffffffffffffffffffffffffff163373ffffffffffffffffffffffffffffffffffffffff161461058c576040517f08c379a0000000000000000000000000000000000000000000000000000000008152600401610583906109a1565b60405180910390fd5b600060149054906101000a900460ff16156105dc576040517f08c379a00000000000000000000000000000000000000000000000000000000081526004016105d390610a8a565b60405180910390fd5b8047101561061f576040517f08c379a000000000000000000000000000000000000000000000000000000000815260040161061690610af6565b60405180910390fd5b8173ffffffffffffffffffffffffffffffffffffffff166108fc829081150290604051600060405180830381858888f19350505050158015610665573d6000803e3d6000fd5b508173ffffffffffffffffffffffffffffffffffffffff167f7084f5476618d8e60b11ef0d7d3f06914655adb8793e28ff7f018d4c76d505d5826040516106ac91906109c1565b60405180910390a25050565b6000819050919050565b6106cb816106b8565b82525050565b60006040820190506106e660008301856106c2565b6106f360208301846106c2565b9392505050565b60008115159050919050565b61070f816106fa565b82525050565b600060208201905061072a6000830184610706565b92915050565b600073ffffffffffffffffffffffffffffffffffffffff82169050919050565b600061075b82610730565b9050919050565b61076b81610750565b82525050565b60006020820190506107866000830184610762565b92915050565b600080fd5b6000819050919050565b6107a481610791565b81146107af57600080fd5b50565b6000813590506107c18161079b565b92915050565b6107d081610750565b81146107db57600080fd5b50565b6000813590506107ed816107c7565b92915050565b6107fc816106b8565b811461080757600080fd5b50565b600081359050610819816107f3565b92915050565b610828816106fa565b811461083357600080fd5b50565b6000813590506108458161081f565b92915050565b600080600080600060a086880312156108675761086661078c565b5b6000610875888289016107b2565b9550506020610886888289016107de565b9450506040610897888289016107de565b93505060606108a88882890161080a565b92505060806108b988828901610836565b9150509295509295909350565b60006108d182610730565b9050919050565b6108e1816108c6565b81146108ec57600080fd5b50565b6000813590506108fe816108d8565b92915050565b6000806040838503121561091b5761091a61078c565b5b6000610929858286016108ef565b925050602061093a8582860161080a565b9150509250929050565b600082825260208201905092915050565b7f6e6f74206f776e65720000000000000000000000000000000000000000000000600082015250565b600061098b600983610944565b915061099682610955565b602082019050919050565b600060208201905081810360008301526109ba8161097e565b9050919050565b60006020820190506109d660008301846106c2565b92915050565b6109e581610791565b82525050565b600060a082019050610a0060008301886109dc565b610a0d6020830187610762565b610a1a6040830186610762565b610a2760608301856106c2565b610a346080830184610706565b9695505050505050565b7f7661756c742066726f7a656e0000000000000000000000000000000000000000600082015250565b6000610a74600c83610944565b9150610a7f82610a3e565b602082019050919050565b60006020820190508181036000830152610aa381610a67565b9050919050565b7f696e73756666696369656e740000000000000000000000000000000000000000600082015250565b6000610ae0600c83610944565b9150610aeb82610aaa565b602082019050919050565b60006020820190508181036000830152610b0f81610ad3565b905091905056fea26469706673582212209a77dbcff983a381e8c42c0f9dac404834734e14c77ffb5a8e16ae0ce30a7a6764736f6c634300081c0033",
  "linkReferences": {},
  "deployedLinkReferences": {}
}