{
  "_format": "hh-sol-artifact-1",
  "contractName": "Aegis",
  "sourceName": "contracts/Aegis.sol",
  "abi": [
    {
      "inputs": [],
      "stateMutability": "nonpayable",
      "type": "constructor"
    },
    {
      "inputs": [
        {
          "internalType": "address",
          "name": "owner",
          "type": "address"
        }
      ],
      "name": "OwnableInvalidOwner",
      "type": "error"
    },
    {
      "inputs": [
        {
          "internalType": "address",
          "name": "account",
          "type": "address"
        }
      ],
      "name": "OwnableUnauthorizedAccount",
      "type": "error"
    },
    {
      "anonymous": false,
      "inputs": [
        {
          "indexed": true,
          "internalType": "address",
          "name": "addr",
          "type": "address"
        },
        {
          "indexed": true,
          "internalType": "address",
          "name": "reporter",
          "type": "address"
        },
        {
          "indexed": false,
          "internalType": "string",
          "name": "reason",
          "type": "string"
        }
      ],
      "name": "AddressFlagged",
      "type": "event"
    },
    {
      "anonymous": false,
      "inputs": [
        {
          "indexed": true,
          "internalType": "address",
          "name": "addr",
          "type": "address"
        },
        {
          "indexed": true,
          "internalType": "address",
          "name": "reporter",
          "type": "address"
        },
        {
          "indexed": false,
          "internalType": "string",
          "name": "reason",
          "type": "string"
        }
      ],
      "name": "AddressFrozen",
      "type": "event"
    },
    {
      "anonymous": false,
      "inputs": [
        {
          "indexed": true,
          "internalType": "address",
          "name": "addr",
          "type": "address"
        },
        {
          "indexed": true,
          "internalType": "address",
          "name": "reporter",
          "type": "address"
        }
      ],
      "name": "AddressUnfrozen",
      "type": "event"
    },
    {
      "anonymous": false,
      "inputs": [
        {
          "indexed": true,
          "internalType": "address",
          "name": "oldKey",
          "type": "address"
        },
        {
          "indexed": true,
          "internalType": "address",
          "name": "newKey",
          "type": "address"
        },
        {
          "indexed": false,
          "internalType": "string",
          "name": "reason",
          "type": "string"
        }
      ],
      "name": "KeyRotated",
      "type": "event"
    },
    {
      "anonymous": false,
      "inputs": [
        {
          "indexed": true,
          "internalType": "address",
          "name": "previousOwner",
          "type": "address"
        },
        {
          "indexed": true,
          "internalType": "address",
          "name": "newOwner",
          "type": "address"
        }
      ],
      "name": "OwnershipTransferred",
      "type": "event"
    },
    {
      "inputs": [
        {
          "internalType": "address",
          "name": "_account",
          "type": "address"
        }
      ],
      "name": "balance",
      "outputs": [
        {
          "internalType": "uint256",
          "name": "",
          "type": "uint256"
        }
      ],
      "stateMutability": "view",
      "type": "function"
    },
    {
      "inputs": [
        {
          "internalType": "address",
          "name": "_addr",
          "type": "address"
        },
        {
          "internalType": "string",
          "name": "reason",
          "type": "string"
        }
      ],
      "name": "flagAddress",
      "outputs": [],
      "stateMutability": "nonpayable",
      "type": "function"
    },
    {
      "inputs": [
        {
          "internalType": "address",
          "name": "",
          "type": "address"
        }
      ],
      "name": "flagged",
      "outputs": [
        {
          "internalType": "bool",
          "name": "",
          "type": "bool"
        }
      ],
      "stateMutability": "view",
      "type": "function"
    },
    {
      "inputs": [
        {
          "internalType": "address",
          "name": "_addr",
          "type": "address"
        },
        {
          "internalType": "string",
          "name": "reason",
          "type": "string"
        }
      ],
      "name": "freezeAddress",
      "outputs": [],
      "stateMutability": "nonpayable",
      "type": "function"
    },
    {
      "inputs": [
        {
          "internalType": "address",
          "name": "",
          "type": "address"
        }
      ],
      "name": "frozen",
      "outputs": [
        {
          "internalType": "bool",
          "name": "",
          "type": "bool"
        }
      ],
      "stateMutability": "view",
      "type": "function"
    },
    {
      "inputs": [
        {
          "internalType": "address",
          "name": "",
          "type": "address"
        }
      ],
      "name": "guardians",
      "outputs": [
        {
          "internalType": "bool",
          "name": "",
          "type": "bool"
        }
      ],
      "stateMutability": "view",
      "type": "function"
    },
    {
      "inputs": [
        {
          "internalType": "address",
          "name": "_to",
          "type": "address"
        },
        {
          "internalType": "uint256",
          "name": "_amount",
          "type": "uint256"
        }
      ],
      "name": "mint",
      "outputs": [],
      "stateMutability": "nonpayable",
      "type": "function"
    },
    {
      "inputs": [],
      "name": "owner",
      "outputs": [
        {
          "internalType": "address",
          "name": "",
          "type": "address"
        }
      ],
      "stateMutability": "view",
      "type": "function"
    },
    {
      "inputs": [],
      "name": "renounceOwnership",
      "outputs": [],
      "stateMutability": "nonpayable",
      "type": "function"
    },
    {
      "inputs": [
        {
          "internalType": "address",
          "name": "newKey",
          "type": "address"
        },
        {
          "internalType": "string",
          "name": "reason",
          "type": "string"
        }
      ],
      "name": "rotateKey",
      "outputs": [],
      "stateMutability": "nonpayable",
      "type": "function"
    },
    {
      "inputs": [
        {
          "internalType": "address",
          "name": "_guardian",
          "type": "address"
        },
        {
          "internalType": "bool",
          "name": "status",
          "type": "bool"
        }
      ],
      "name": "setGuardian",
      "outputs": [],
      "stateMutability": "nonpayable",
      "type": "function"
    },
    {
      "inputs": [
        {
          "internalType": "address",
          "name": "_to",
          "type": "address"
        },
        {
          "internalType": "uint256",
          "name": "_amount",
          "type": "uint256"
        }
      ],
      "name": "transfer",
      "outputs": [],
      "stateMutability": "nonpayable",
      "type": "function"
    },
    {
      "inputs": [
        {
          "internalType": "address",
          "name": "newOwner",
          "type": "address"
        }
      ],
      "name": "transferOwnership",
      "outputs": [],
      "stateMutability": "nonpayable",
      "type": "function"
    },
    {
      "inputs": [
        {
          "internalType": "address",
          "name": "_addr",
          "type": "address"
        }
      ],
      "name": "unfreezeAddress",
      "outputs": [],
      "stateMutability": "nonpayable",
      "type": "function"
    }
  ],
  "bytecode": "0x608060405234801561001057600080fd5b5033600073ffffffffffffffffffffffffffffffffffffffff168173ffffffffffffffffffffffffffffffffffffffff16036100845760006040517f1e4fbdf700000000000000000000000000000000000000000000000000000000815260040161007b91906101e4565b60405180910390fd5b610093816100df60201b60201c565b506103e8600160003373ffffffffffffffffffffffffffffffffffffffff1673ffffffffffffffffffffffffffffffffffffffff168152602001908152602001600020819055506101ff565b60008060009054906101000a900473ffffffffffffffffffffffffffffffffffffffff169050816000806101000a81548173ffffffffffffffffffffffffffffffffffffffff021916908373ffffffffffffffffffffffffffffffffffffffff1602179055508173ffffffffffffffffffffffffffffffffffffffff168173ffffffffffffffffffffffffffffffffffffffff167f8be0079c531659141344cd1fd0a4f28419497f9722a3daafe3b4186f6b6457e060405160405180910390a35050565b600073ffffffffffffffffffffffffffffffffffffffff82169050919050565b60006101ce826101a3565b9050919050565b6101de816101c3565b82525050565b60006020820190506101f960008301846101d5565b92915050565b61152c8061020e6000396000f3fe608060405234801561001057600080fd5b50600436106100ea5760003560e01c80638da5cb5b1161008c578063cb2505cf11610066578063cb2505cf1461020b578063d05166501461023b578063e3d670d71461026b578063f2fde38b1461029b576100ea565b80638da5cb5b146101b5578063a9059cbb146101d3578063bfb80547146101ef576100ea565b80632cfbf152116100c85780632cfbf1521461015757806340c10f191461017357806360be8f2e1461018f578063715018a6146101ab576100ea565b806301e4157c146100ef5780630633b14a1461010b5780632b8a1c5a1461013b575b600080fd5b61010960048036038101906101049190611019565b6102b7565b005b61012560048036038101906101209190611075565b610441565b60405161013291906110bd565b60405180910390f35b61015560048036038101906101509190611104565b610461565b005b610171600480360381019061016c9190611019565b6104c4565b005b61018d6004803603810190610188919061117a565b61064e565b005b6101a960048036038101906101a49190611019565b6106b0565b005b6101b36107f8565b005b6101bd61080c565b6040516101ca91906111c9565b60405180910390f35b6101ed60048036038101906101e8919061117a565b610835565b005b61020960048036038101906102049190611075565b610a81565b005b61022560048036038101906102209190611075565b610bff565b60405161023291906110bd565b60405180910390f35b61025560048036038101906102509190611075565b610c1f565b60405161026291906110bd565b60405180910390f35b61028560048036038101906102809190611075565b610c3f565b60405161029291906111f3565b60405180910390f35b6102b560048036038101906102b09190611075565b610c88565b005b6102bf61080c565b73ffffffffffffffffffffffffffffffffffffffff163373ffffffffffffffffffffffffffffffffffffffff1614806103415750600460003373ffffffffffffffffffffffffffffffffffffffff1673ffffffffffffffffffffffffffffffffffffffff16815260200190815260200160002060009054906101000a900460ff165b610380576040517f08c379a00000000000000000000000000000000000000000000000000000000081526004016103779061126b565b60405180910390fd5b6001600260008473ffffffffffffffffffffffffffffffffffffffff1673ffffffffffffffffffffffffffffffffffffffff16815260200190815260200160002060006101000a81548160ff0219169083151502179055503373ffffffffffffffffffffffffffffffffffffffff168273ffffffffffffffffffffffffffffffffffffffff167f2c6b9d5d5f41243aaf920f87ef066b1dcc3298fdaffd3c4bd1a0cc7788d049b58360405161043591906112f9565b60405180910390a35050565b60046020528060005260406000206000915054906101000a900460ff1681565b610469610d0e565b80600460008473ffffffffffffffffffffffffffffffffffffffff1673ffffffffffffffffffffffffffffffffffffffff16815260200190815260200160002060006101000a81548160ff0219169083151502179055505050565b6104cc61080c565b73ffffffffffffffffffffffffffffffffffffffff163373ffffffffffffffffffffffffffffffffffffffff16148061054e5750600460003373ffffffffffffffffffffffffffffffffffffffff1673ffffffffffffffffffffffffffffffffffffffff16815260200190815260200160002060009054906101000a900460ff165b61058d576040517f08c379a00000000000000000000000000000000000000000000000000000000081526004016105849061126b565b60405180910390fd5b6001600360008473ffffffffffffffffffffffffffffffffffffffff1673ffffffffffffffffffffffffffffffffffffffff16815260200190815260200160002060006101000a81548160ff0219169083151502179055503373ffffffffffffffffffffffffffffffffffffffff168273ffffffffffffffffffffffffffffffffffffffff167f1d485a77a06c81a33cbbd97bda2128a1cba751af73b3cd4b529268f070c515c88360405161064291906112f9565b60405180910390a35050565b610656610d0e565b80600160008473ffffffffffffffffffffffffffffffffffffffff1673ffffffffffffffffffffffffffffffffffffffff16815260200190815260200160002060008282546106a5919061134a565b925050819055505050565b6106b861080c565b73ffffffffffffffffffffffffffffffffffffffff163373ffffffffffffffffffffffffffffffffffffffff16148061073a5750600460003373ffffffffffffffffffffffffffffffffffffffff1673ffffffffffffffffffffffffffffffffffffffff16815260200190815260200160002060009054906101000a900460ff165b610779576040517f08c379a00000000000000000000000000000000000000000000000000000000081526004016107709061126b565b60405180910390fd5b600061078361080c565b905061078e83610d95565b8273ffffffffffffffffffffffffffffffffffffffff168173ffffffffffffffffffffffffffffffffffffffff167f18c49a3649eba1bcdae7ad5ec5c82f5446cfa103439d8ef39ac9d7c6d39bb351846040516107eb91906112f9565b60405180910390a3505050565b610800610d0e565b61080a6000610d95565b565b60008060009054906101000a900473ffffffffffffffffffffffffffffffffffffffff16905090565b600260003373ffffffffffffffffffffffffffffffffffffffff1673ffffffffffffffffffffffffffffffffffffffff16815260200190815260200160002060009054906101000a900460ff16156108c2576040517f08c379a00000000000000000000000000000000000000000000000000000000081526004016108b9906113ca565b60405180910390fd5b600260008373ffffffffffffffffffffffffffffffffffffffff1673ffffffffffffffffffffffffffffffffffffffff16815260200190815260200160002060009054906101000a900460ff161561094f576040517f08c379a000000000000000000000000000000000000000000000000000000000815260040161094690611436565b60405180910390fd5b80600160003373ffffffffffffffffffffffffffffffffffffffff1673ffffffffffffffffffffffffffffffffffffffff1681526020019081526020016000205410156109d1576040517f08c379a00000000000000000000000000000000000000000000000000000000081526004016109c8906114a2565b60405180910390fd5b80600160003373ffffffffffffffffffffffffffffffffffffffff1673ffffffffffffffffffffffffffffffffffffffff1681526020019081526020016000206000828254610a2091906114c2565b9250508190555080600160008473ffffffffffffffffffffffffffffffffffffffff1673ffffffffffffffffffffffffffffffffffffffff1681526020019081526020016000206000828254610a76919061134a565b925050819055505050565b610a8961080c565b73ffffffffffffffffffffffffffffffffffffffff163373ffffffffffffffffffffffffffffffffffffffff161480610b0b5750600460003373ffffffffffffffffffffffffffffffffffffffff1673ffffffffffffffffffffffffffffffffffffffff16815260200190815260200160002060009054906101000a900460ff165b610b4a576040517f08c379a0000000000000000000000000000000000000000000000000000000008152600401610b419061126b565b60405180910390fd5b6000600260008373ffffffffffffffffffffffffffffffffffffffff1673ffffffffffffffffffffffffffffffffffffffff16815260200190815260200160002060006101000a81548160ff0219169083151502179055503373ffffffffffffffffffffffffffffffffffffffff168173ffffffffffffffffffffffffffffffffffffffff167fd5cc07200af87e8670fce2785b66d69636b7f781a3821d4c1327e854868f2bea60405160405180910390a350565b60036020528060005260406000206000915054906101000a900460ff1681565b60026020528060005260406000206000915054906101000a900460ff1681565b6000600160008373ffffffffffffffffffffffffffffffffffffffff1673ffffffffffffffffffffffffffffffffffffffff168152602001908152602001600020549050919050565b610c90610d0e565b600073ffffffffffffffffffffffffffffffffffffffff168173ffffffffffffffffffffffffffffffffffffffff1603610d025760006040517f1e4fbdf7000000000000000000000000000000000000000000000000000000008152600401610cf991906111c9565b60405180910390fd5b610d0b81610d95565b50565b610d16610e59565b73ffffffffffffffffffffffffffffffffffffffff16610d3461080c565b73ffffffffffffffffffffffffffffffffffffffff1614610d9357610d57610e59565b6040517f118cdaa7000000000000000000000000000000000000000000000000000000008152600401610d8a91906111c9565b60405180910390fd5b565b60008060009054906101000a900473ffffffffffffffffffffffffffffffffffffffff169050816000806101000a81548173ffffffffffffffffffffffffffffffffffffffff021916908373ffffffffffffffffffffffffffffffffffffffff1602179055508173ffffffffffffffffffffffffffffffffffffffff168173ffffffffffffffffffffffffffffffffffffffff167f8be0079c531659141344cd1fd0a4f28419497f9722a3daafe3b4186f6b6457e060405160405180910390a35050565b600033905090565b6000604051905090565b600080fd5b600080fd5b600073ffffffffffffffffffffffffffffffffffffffff82169050919050565b6000610ea082610e75565b9050919050565b610eb081610e95565b8114610ebb57600080fd5b50565b600081359050610ecd81610ea7565b92915050565b600080fd5b600080fd5b6000601f19601f8301169050919050565b7f4e487b7100000000000000000000000000000000000000000000000000000000600052604160045260246000fd5b610f2682610edd565b810181811067ffffffffffffffff82111715610f4557610f44610eee565b5b80604052505050565b6000610f58610e61565b9050610f648282610f1d565b919050565b600067ffffffffffffffff821115610f8457610f83610eee565b5b610f8d82610edd565b9050602081019050919050565b82818337600083830152505050565b6000610fbc610fb784610f69565b610f4e565b905082815260208101848484011115610fd857610fd7610ed8565b5b610fe3848285610f9a565b509392505050565b600082601f83011261100057610fff610ed3565b5b8135611010848260208601610fa9565b91505092915050565b600080604083850312156110305761102f610e6b565b5b600061103e85828601610ebe565b925050602083013567ffffffffffffffff81111561105f5761105e610e70565b5b61106b85828601610feb565b9150509250929050565b60006020828403121561108b5761108a610e6b565b5b600061109984828501610ebe565b91505092915050565b60008115159050919050565b6110b7816110a2565b82525050565b60006020820190506110d260008301846110ae565b92915050565b6110e1816110a2565b81146110ec57600080fd5b50565b6000813590506110fe816110d8565b92915050565b6000806040838503121561111b5761111a610e6b565b5b600061112985828601610ebe565b925050602061113a858286016110ef565b9150509250929050565b6000819050919050565b61115781611144565b811461116257600080fd5b50565b6000813590506111748161114e565b92915050565b6000806040838503121561119157611190610e6b565b5b600061119f85828601610ebe565b92505060206111b085828601611165565b9150509250929050565b6111c381610e95565b82525050565b60006020820190506111de60008301846111ba565b92915050565b6111ed81611144565b82525050565b600060208201905061120860008301846111e4565b92915050565b600082825260208201905092915050565b7f4e6f7420617574686f72697a6564000000000000000000000000000000000000600082015250565b6000611255600e8361120e565b91506112608261121f565b602082019050919050565b6000602082019050818103600083015261128481611248565b9050919050565b600081519050919050565b60005b838110156112b4578082015181840152602081019050611299565b60008484015250505050565b60006112cb8261128b565b6112d5818561120e565b93506112e5818560208601611296565b6112ee81610edd565b840191505092915050565b6000602082019050818103600083015261131381846112c0565b905092915050565b7f4e487b7100000000000000000000000000000000000000000000000000000000600052601160045260246000fd5b600061135582611144565b915061136083611144565b92508282019050808211156113785761137761131b565b5b92915050565b7f53656e6465722069732066726f7a656e00000000000000000000000000000000600082015250565b60006113b460108361120e565b91506113bf8261137e565b602082019050919050565b600060208201905081810360008301526113e3816113a7565b9050919050565b7f526563697069656e742069732066726f7a656e00000000000000000000000000600082015250565b600061142060138361120e565b915061142b826113ea565b602082019050919050565b6000602082019050818103600083015261144f81611413565b9050919050565b7f496e73756666696369656e742062616c616e6365000000000000000000000000600082015250565b600061148c60148361120e565b915061149782611456565b602082019050919050565b600060208201905081810360008301526114bb8161147f565b9050919050565b60006114cd82611144565b91506114d883611144565b92508282039050818111156114f0576114ef61131b565b5b9291505056fea2646970667358221220694bcd14e2fdbd6042f3af2c4aa06c63ba765aa1bfa428e9094670d993c57b3264736f6c634300081c0033",
  "linkReferences": {},
  "deployedLinkReferences": {}
}