{
  "_format": "hh-sol-artifact-1",
  "contractName": "SmartWallet",
  "sourceName": "contracts/SmartWallet.sol",
  "abi": [
    {
      "inputs": [
        {
          "internalType": "address",
          "name": "_owner",
          "type": "address"
        }
      ],
      "stateMutability": "payable",
      "type": "constructor"
    },
    {
      "anonymous": false,
      "inputs": [
        {
          "indexed": true,
          "internalType": "address",
          "name": "to",
          "type": "address"
        },
        {
          "indexed": false,
          "internalType": "uint256",
          "name": "value",
          "type": "uint256"
        },
        {
          "indexed": false,
          "internalType": "bytes",
          "name": "data",
          "type": "bytes"
        }
      ],
      "name": "Executed",
      "type": "event"
    },
    {
      "anonymous": false,
      "inputs": [
        {
          "indexed": true,
          "internalType": "address",
          "name": "oldKey",
          "type": "address"
        },
        {
          "indexed": true,
          "internalType": "address",
          "name": "newKey",
          "type": "address"
        },
        {
          "indexed": false,
          "internalType": "string",
          "name": "reason",
          "type": "string"
        }
      ],
      "name": "KeyRotated",
      "type": "event"
    },
    {
      "inputs": [
        {
          "internalType": "address",
          "name": "to",
          "type": "address"
        },
        {
          "internalType": "uint256",
          "name": "value",
          "type": "uint256"
        },
        {
          "internalType": "bytes",
          "name": "data",
          "type": "bytes"
        }
      ],
      "name": "execute",
      "outputs": [
        {
          "internalType": "bytes",
          "name": "",
          "type": "bytes"
        }
      ],
      "stateMutability": "nonpayable",
      "type": "function"
    },
    {
      "inputs": [],
      "name": "owner",
      "outputs": [
        {
          "internalType": "address",
          "name": "",
          "type": "address"
        }
      ],
      "stateMutability": "view",
      "type": "function"
    },
    {
      "inputs": [
        {
          "internalType": "address",
          "name": "newOwner",
          "type": "address"
        },
        {
          "internalType": "string",
          "name": "reason",
          "type": "string"
        }
      ],
      "name": "rotateKey",
      "outputs": [],
      "stateMutability": "nonpayable",
      "type": "function"
    },
    {
      "stateMutability": "payable",
      "type": "receive"
    }
  ],
  "bytecode": "0x6080604052604051610a44380380610a44833981810160405281019061002591906100ce565b806000806101000a81548173ffffffffffffffffffffffffffffffffffffffff021916908373ffffffffffffffffffffffffffffffffffffffff160217905550506100fb565b600080fd5b600073ffffffffffffffffffffffffffffffffffffffff82169050919050565b600061009b82610070565b9050919050565b6100ab81610090565b81146100b657600080fd5b50565b6000815190506100c8816100a2565b92915050565b6000602082840312156100e4576100e361006b565b5b60006100f2848285016100b9565b91505092915050565b61093a8061010a6000396000f3fe6080604052600436106100385760003560e01c806360be8f2e146100445780638da5cb5b1461006d578063b61d27f6146100985761003f565b3661003f57005b600080fd5b34801561005057600080fd5b5061006b600480360381019061006691906104c8565b6100d5565b005b34801561007957600080fd5b50610082610236565b60405161008f9190610537565b60405180910390f35b3480156100a457600080fd5b506100bf60048036038101906100ba91906105de565b61025a565b6040516100cc91906106e2565b60405180910390f35b60008054906101000a900473ffffffffffffffffffffffffffffffffffffffff1673ffffffffffffffffffffffffffffffffffffffff163373ffffffffffffffffffffffffffffffffffffffff1614610163576040517f08c379a000000000000000000000000000000000000000000000000000000000815260040161015a90610761565b60405180910390fd5b60008060009054906101000a900473ffffffffffffffffffffffffffffffffffffffff169050836000806101000a81548173ffffffffffffffffffffffffffffffffffffffff021916908373ffffffffffffffffffffffffffffffffffffffff1602179055508373ffffffffffffffffffffffffffffffffffffffff168173ffffffffffffffffffffffffffffffffffffffff167f18c49a3649eba1bcdae7ad5ec5c82f5446cfa103439d8ef39ac9d7c6d39bb35185856040516102289291906107bd565b60405180910390a350505050565b60008054906101000a900473ffffffffffffffffffffffffffffffffffffffff1681565b606060008054906101000a900473ffffffffffffffffffffffffffffffffffffffff1673ffffffffffffffffffffffffffffffffffffffff163373ffffffffffffffffffffffffffffffffffffffff16146102ea576040517f08c379a00000000000000000000000000000000000000000000000000000000081526004016102e190610761565b60405180910390fd5b6000808673ffffffffffffffffffffffffffffffffffffffff16868686604051610315929190610811565b60006040518083038185875af1925050503d8060008114610352576040519150601f19603f3d011682016040523d82523d6000602084013e610357565b606091505b50915091508161039c576040517f08c379a000000000000000000000000000000000000000000000000000000000815260040161039390610876565b60405180910390fd5b8673ffffffffffffffffffffffffffffffffffffffff167fcaf938de11c367272220bfd1d2baa99ca46665e7bc4d85f00adb51b90fe1fa9f8787876040516103e6939291906108d2565b60405180910390a28092505050949350505050565b600080fd5b600080fd5b600073ffffffffffffffffffffffffffffffffffffffff82169050919050565b600061043082610405565b9050919050565b61044081610425565b811461044b57600080fd5b50565b60008135905061045d81610437565b92915050565b600080fd5b600080fd5b600080fd5b60008083601f84011261048857610487610463565b5b8235905067ffffffffffffffff8111156104a5576104a4610468565b5b6020830191508360018202830111156104c1576104c061046d565b5b9250929050565b6000806000604084860312156104e1576104e06103fb565b5b60006104ef8682870161044e565b935050602084013567ffffffffffffffff8111156105105761050f610400565b5b61051c86828701610472565b92509250509250925092565b61053181610425565b82525050565b600060208201905061054c6000830184610528565b92915050565b6000819050919050565b61056581610552565b811461057057600080fd5b50565b6000813590506105828161055c565b92915050565b60008083601f84011261059e5761059d610463565b5b8235905067ffffffffffffffff8111156105bb576105ba610468565b5b6020830191508360018202830111156105d7576105d661046d565b5b9250929050565b600080600080606085870312156105f8576105f76103fb565b5b60006106068782880161044e565b945050602061061787828801610573565b935050604085013567ffffffffffffffff81111561063857610637610400565b5b61064487828801610588565b925092505092959194509250565b600081519050919050565b600082825260208201905092915050565b60005b8381101561068c578082015181840152602081019050610671565b60008484015250505050565b6000601f19601f8301169050919050565b60006106b482610652565b6106be818561065d565b93506106ce81856020860161066e565b6106d781610698565b840191505092915050565b600060208201905081810360008301526106fc81846106a9565b905092915050565b600082825260208201905092915050565b7f4e6f74206f776e65720000000000000000000000000000000000000000000000600082015250565b600061074b600983610704565b915061075682610715565b602082019050919050565b6000602082019050818103600083015261077a8161073e565b9050919050565b82818337600083830152505050565b600061079c8385610704565b93506107a9838584610781565b6107b283610698565b840190509392505050565b600060208201905081810360008301526107d8818486610790565b90509392505050565b600081905092915050565b60006107f883856107e1565b9350610805838584610781565b82840190509392505050565b600061081e8284866107ec565b91508190509392505050565b7f457865637574696f6e206661696c656400000000000000000000000000000000600082015250565b6000610860601083610704565b915061086b8261082a565b602082019050919050565b6000602082019050818103600083015261088f81610853565b9050919050565b61089f81610552565b82525050565b60006108b1838561065d565b93506108be838584610781565b6108c783610698565b840190509392505050565b60006040820190506108e76000830186610896565b81810360208301526108fa8184866108a5565b905094935050505056fea2646970667358221220739313b12b0b1b4d11aa0f1df3f7a2cf2b775c4a0f48e2297bfb2f8a720a384e64736f6c634300081c0033",
  "linkReferences": {},
  "deployedLinkReferences": {}
}